S01C0000586D656761206F766572636C6F636B20746573742E737265634E
S11300000C94FE000C940A010C940A010C940A014D
S11300100C940A010C940A010C940A010C940A0130
S11300200C940A010C940A010C940A010C940A0120
S11300300C940A010C940A010C940A010C940A0110
S11300400C940A010C940A010C940A010C940A0100
S11300500C940A010C940A010C940A010C940A01F0
S11300600C940A010C940A010C940A010C940A01E0
S11300700C940A010C940A010C940A010C940A01D0
S11300800C940A010C940A010C940A010C940A01C0
S11300900C940A010C940A010C940A010C940A01B0
S11300A00C940A010C940A010C940A010C940A01A0
S11300B00C940A010C940A010C940A010C940A0190
S11300C00C940A010C940A010C940A010C940A0180
S11300D00C940A010C940A010C940A010C940A0170
S11300E00C940A010C940A010C940A010C940A0160
S11300F00C940A010C940A010C940A010C940A0150
S11301000C940A010C940A010C940A010C940A013F
S11301100C940A010C940A010C940A010C940A012F
S11301200C940A010C940A010C940A010C940A011F
S11301300C940A010C940A010C940A010C940A010F
S11301400C940A010C940A010C940A010C940A01FF
S11301500C940A010C940A010C940A010C940A01EF
S11301600C940A010C940A010C940A010C940A01DF
S11301700C940A010C940A010C940A010C940A01CF
S11301800C940A010C940A010C940A010C940A01BF
S11301900C940A010C940A010C940A010C940A01AF
S11301A00C940A010C940A010C940A010C940A019F
S11301B00C940A010C940A010C940A010C940A018F
S11301C00C940A010C940A010C940A010C940A017F
S11301D00C940A010C940A010C940A010C940A016F
S11301E00C940A010C940A010C940A010C940A015F
S11301F00C940A010C940A010C940A0111241FBEE8
S1130200CFEFCDBFDFE5DEBF00E00CBF0E944F01A2
S11302100C948C010C9400000F93CF93DF931F92E6
S1130220CDB7DEB72FB72983F8941BBEFC0108EDC8
S113023004BF608389818FBF0F90DF91CF910F91AD
S11302400895611102C090E001C090E2842B892BD3
S11302508093520008956F71862B80935500089502
S1130260E0E5F0E09081282F2095922390839081FF
S1130270892308950F931F93CF93C82F00E410E0B0
S1130280F8016081687F682B80E490E00E940C0193
S1130290F80180818C23CF911F910F91089580E8FC
S11302A0809361064BE060E080EC0E942101E0E570
S11302B0F0E0808188608083818183FFFDCF63E0EB
S11302C080EC0E942B01E0E5F0E080818061808376
S11302D0818184FFFDCF84E00E943A0181E00E9485
S11302E0300182E00E943001E0E6F6E080E82FEF82
S11302F03BE792E9215030409040E1F700C0000014
S113030085832FEF3BE792E9215030409040E1F79D
S10F031000C000008683EBCFF894FFCF00
S9030000FC
