S0150000636F6D706F6F72745F746573742E737265637D
S11300000C9402010C9423010C9423010C942301FD
S11300100C9423010C9423010C9423010C942301CC
S11300200C9423010C9423010C9423010C942301BC
S11300300C9423010C9423010C9423010C942301AC
S11300400C9423010C9423010C9423010C9423019C
S11300500C9423010C9423010C9423010C9423018C
S11300600C9423010C9423010C9423010C9423017C
S11300700C9423010C9423010C9423010C9423016C
S11300800C9423010C9423010C9423010C9423015C
S11300900C9423010C9423010C9423010C9423014C
S11300A00C9423010C9423010C9423010C9423013C
S11300B00C9423010C9423010C9423010C9423012C
S11300C00C9423010C9423010C9423010C9423011C
S11300D00C9423010C9423010C9423010C9423010C
S11300E00C9423010C9423010C9423010C942301FC
S11300F00C9423010C9423010C9423010C942301EC
S11301000C9423010C9423010C9423010C942301DB
S11301100C9423010C9423010C9423010C942301CB
S11301200C9423010C9423010C9423010C942301BB
S11301300C9423010C9423010C9423010C942301AB
S11301400C9423010C9423010C9423010C9423019B
S11301500C9423010C9423010C9423010C9423018B
S11301600C9423010C9423010C9423010C9423017B
S11301700C9423010C9423010C9423010C9423016B
S11301800C9423010C9423010C9423010C9423015B
S11301900C9423010C9423010C9423010C9423014B
S11301A00C9423010C9423010C9423010C9423013B
S11301B00C9423010C9423010C9423010C9423012B
S11301C00C9423010C9423010C9423010C9423011B
S11301D00C9423010C9423010C9423010C94F60237
S11301E00C941E030C9423010C9423010C942301FE
S11301F00C9423010C9423010C9423010C94950179
S11302000C94D50111241FBECFEFCDBFDFE5DEBFB7
S113021000E00CBF10E2A0E0B0E2EEE4FBE000E09E
S11302200BBF02C007900D92AE30B107D9F720E2A0
S1130230AEE0B0E201C01D92A03EB207E1F70E9419
S11302403C010C94A5050C940000FC0146835F70EE
S11302506295607F652B67830895E0E6F6E020E809
S1130260218320E42283FC01138228E0248323E0F9
S113027025830E942501089584E08093620681E02D
S11302808093410660E874E88EE190E00E94F501F5
S1130290789441E251E069EF80EB99E00E942D01EE
S11302A000E616E00F2EF0E4EF2EF6E0FF2EF02D20
S11302B0DD24D394C0EBD9E00F2EFAE7CF2EF02D36
S11302C0F801808582FF04C0C882F701D58202C08C
S11302D0F701D6820E94EA019C018115914081F3C5
S11302E0998195FFFDCF2883EBCF80917320909166
S11302F07220891710F0891B08958C59891B089561
S1130300CF93C09172200E9475018823E1F3EC2FF2
S1130310F0E0E25FFF4D808191E09C0F943608F09D
S113032090E090937220CF9108950E94800190E014
S113033008952091D92091E0920F8091D82094368D
S113034010F09DE9920F891710F0891B08958C59BC
S1130350891B08950F931F93CF93DF93D82F00EA3F
S11303601BE0C1E202C0F801C3830E949901882303
S1130370D1F38091D920E82FF0E0EC58FF4DD083E1
S11303808F5F843608F080E0E0EAF0E09281292F64
S11303902E7F22838093D92081E28093A30B9283C2
S11303A0DF91CF911F910F910895CF93C82F0E9491
S11303B09901882359F0CA3019F48DE00E94AA01EA
S11303C08C2F0E94AA0180E090E002C081E090E0BE
S11303D0CF9108950E947501882321F00E94800125
S11303E090E0089580E091E008954F925F926F92BB
S11303F07F928F929F92AF92BF92EF92FF920F9350
S11304001F93CF934B015C0107E010E0C9EFEE248A
S1130410E394F12CCC2354F5C501B4010E945D048E
S113042020E030E041EE59E40E94BC0320E030E0DB
S113043040E85FE30E944F032B013C01B701002E0B
S113044002C0660F771F0A94E2F7072E000C880B90
S1130450990B0E945F049B01AC01C301B2010E948D
S1130460EB040E9458050E942E042CC0C501B4015F
S11304700E945D0420E030E041EE59E40E94BC0398
S11304802B013C0188279927801B910BB70102C0DF
S1130490660F771F8A95E2F7072E000C880B990BDD
S11304A00E945F049B01AC01C301B2010E94BC0322
S11304B020E030E040E85FE30E944F030E945805CB
S11304C00E942E046115704138F0CF5F015011096C
S11304D0C83009F09FCF31C0CC237CF5C501B401ED
S11304E00E945D0420E030E041EE59E40E94BC0328
S11304F020E030E040E85FE30E944F034B015C01E1
S11305002C2F332721950CF4309561E070E002C064
S1130510660F771F2A95E2F7072E000C880B990BBC
S11305200E945F049B01AC01C501B4010E94EB046D
S11305300E9458050E942E042AC0C501B4010E94DD
S11305405D0420E030E041EE59E40E94BC034B011D
S11305505C0161E070E00C2E02C0660F771F0A9404
S1130560E2F7072E000C880B990B0E945F049B0195
S1130570AC01C501B4010E94BC0320E030E040E8B6
S11305805FE30E944F030E9458050E942E04E0EA94
S1130590F6E088E1828B98E09583918394E09283DE
S11305A0E0EAFBE066837F70C295C07FC72BC783F8
S11305B0848380E28383E0EAF0E082818360828343
S11305C0EAEDF0E280E090E280839183828393837A
S11305D0CF911F910F91FF90EF90BF90AF909F909C
S11305E08F907F906F905F904F9008951F920F921D
S11305F00FB60F9211240BB60F928F939F93EF9324
S1130600FF9380917320E82FF0E09091A00BE25FBC
S1130610FF4D90838F5F843608F080E090917220C4
S1130620891380937320FF91EF919F918F910F9085
S11306300BBE0F900FBE0F901F9018951F920F9234
S11306400FB60F9211240BB60F922F938F939F9393
S1130650EF93FF938091D8209091D920891769F066
S1130660E82FF0E0EC58FF4D20812093A00B8F5F22
S1130670843608F080E0891304C080E28093A30BE1
S1130680892F8093D820FF91EF919F918F912F9183
S11306900F900BBE0F900FBE0F901F9018955058DF
S11306A0BB27AA270E9467030C94B1040E94A304E9
S11306B038F00E94AA0420F039F49F3F19F426F47C
S11306C00C94A0040EF4E095E7FB0C949A04E92F33
S11306D00E94C20458F3BA17620773078407950788
S11306E020F079F4A6F50C94E4040EF4E0950B2EB6
S11306F0BA2FA02D0B01B90190010C01CA01A00170
S11307001124FF27591B99F0593F50F4503E68F1CA
S11307101A16F040A22F232F342F4427585FF3CF0B
S1130720469537952795A795F0405395C9F77EF4DC
S11307301F16BA0B620B730B840BBAF09150A1F025
S1130740FF0FBB1F661F771F881FC2F70EC0BA0FAB
S1130750621F731F841F48F4879577956795B79533
S1130760F7959E3F08F0B0CF9395880F08F099272E
S1130770EE0F9795879508950E94D0030C94B104C9
S11307800E94AA0458F00E94A30440F029F45F3F99
S113079029F00C949A0451110C94E5040C94A004CF
S11307A00E94C20468F39923B1F3552391F3951B76
S11307B0550BBB27AA2762177307840738F09F5F7E
S11307C05F4F220F331F441FAA1FA9F335D00E2EEB
S11307D03AF0E0E832D091505040E695001CCAF758
S11307E02BD0FE2F29D0660F771F881FBB1F26171B
S11307F037074807AB07B0E809F0BB0B802DBF01F2
S1130800FF2793585F4F3AF09E3F510578F00C94C0
S11308109A040C94E5045F3FE4F3983ED4F3869580
S113082077956795B795F7959F5FC9F7880F911DE1
S11308309695879597F90895E1E0660F771F881FCD
S1130840BB1F621773078407BA0720F0621B730B80
S1130850840BBA0BEE1F88F7E09508950E94CA0432
S113086088F09F5798F0B92F9927B751B0F0E1F06D
S1130870660F771F881F991F1AF0BA95C9F714C01D
S1130880B13091F00E94E404B1E008950C94E404C2
S1130890672F782F8827B85F39F0B93FCCF3869556
S11308A077956795B395D9F73EF4909580957095B3
S11308B061957F4F8F4F9F4F0895E89409C097FB30
S11308C03EF490958095709561957F4F8F4F9F4F23
S11308D09923A9F0F92F96E9BB279395F695879567
S11308E077956795B795F111F8CFFAF4BB0F11F42A
S11308F060FF1BC06F5F7F4F8F4F9F4F16C08823D1
S113090011F096E911C0772321F09EE8872F762F06
S113091005C0662371F096E8862F70E060E02AF047
S11309209A95660F771F881FDAF7880F9695879533
S113093097F9089597F99F6780E870E060E008955B
S11309409FEF80EC089500240A94161617061806E3
S11309500906089500240A941216130614060506BF
S11309600895092E0394000C11F4882352F0BB0F50
S113097040F4BF2B11F460FF04C06F5F7F4F8F4FB3
S11309809F4F089557FD9058440F551F59F05F3FEE
S113099071F04795880F97FB991F61F09F3F79F09D
S11309A087950895121613061406551FF2CF46951F
S11309B0F1DF08C0161617061806991FF1CF8695A1
S11309C07105610508940895E894BB276627772785
S11309D0CB0197F908950E94FE040C94B1040E947F
S11309E0A30438F00E94AA0420F0952311F00C947B
S11309F09A040C94A00411240C94E5040E94C204EB
S1130A0070F3959FC1F3950F50E0551F629FF0015D
S1130A10729FBB27F00DB11D639FAA27F00DB11D76
S1130A20AA1F649F6627B00DA11D661F829F2227FF
S1130A30B00DA11D621F739FB00DA11D621F839F86
S1130A40A00D611D221F749F3327A00D611D231F5C
S1130A50849F600D211D822F762F6A2F11249F57AA
S1130A6050409AF0F1F088234AF0EE0FFF1FBB1FAD
S1130A70661F771F881F91505040A9F79E3F51056C
S1130A8080F00C949A040C94E5045F3FE4F3983EE0
S1130A90D4F3869577956795B795F795E7959F5F16
S1130AA0C1F7FE2B880F911D9695879597F90895A8
S1130AB00E94CA04E8F09E37E8F09639B8F49E38EC
S1130AC048F4672F782F8827985FF9CF8695779514
S1130AD0679593959539D0F3B62FB1706B0F711D4F
S1130AE0811D20F487957795679593950C947C05E3
S1130AF00C9497050C94E504882371F4772321F072
S1130B009850872B762F07C0662311F499270DC0C0
S1130B109051862B70E060E02AF09A95660F771F5B
S1130B20881FDAF7880F9695879597F908959F3F60
S1130B3031F0915020F4879577956795B795880F94
S1110B40911D9695879597F90895F894FFCF27
S1110B4E0000000300000000D5019501000026
S9030000FC
