S01500004669786564706F696E744949522E7372656311
S11300000C94FE000C941F010C941F010C941F010E
S11300100C941F010C941F010C941F010C941F01DC
S11300200C941F010C941F010C941F010C941F01CC
S11300300C941F010C941F010C941F010C941F01BC
S11300400C941F010C941F010C941F010C941F01AC
S11300500C941F010C941F010C941F010C941F019C
S11300600C941F010C941F010C941F010C941F018C
S11300700C941F010C941F010C941F010C941F017C
S11300800C941F010C941F010C941F010C941F016C
S11300900C941F010C941F010C941F010C941F015C
S11300A00C941F010C941F010C941F010C941F014C
S11300B00C941F010C941F010C941F010C941F013C
S11300C00C941F010C941F010C941F010C941F012C
S11300D00C941F010C941F010C941F010C941F011C
S11300E00C941F010C941F010C941F010C941F010C
S11300F00C941F010C941F010C941F010C941F01FC
S11301000C941F010C941F010C941F010C941F01EB
S11301100C941F010C941F010C941F010C94980162
S11301200C941F010C941F010C941F010C941F01CB
S11301300C941F010C941F010C941F010C941F01BB
S11301400C941F010C941F010C941F010C941F01AB
S11301500C941F010C941F010C941F010C941F019B
S11301600C941F010C941F010C941F010C941F018B
S11301700C941F010C941F010C941F010C941F017B
S11301800C941F010C941F010C941F010C941F016B
S11301900C941F010C941F010C941F010C941F015B
S11301A00C941F010C941F010C941F010C941F014B
S11301B00C941F010C941F010C941F010C941F013B
S11301C00C941F010C941F010C941F010C941F012B
S11301D00C941F010C941F010C941F010C941F011B
S11301E00C941F010C941F010C941F010C941F010B
S11301F00C941F010C941F010C941F0111241FBEA9
S1130200CFEFCDBFDFE5DEBF00E00CBF10E2A0E022
S1130210B0E2E4E5F9E000E00BBF02C007900D9204
S1130220A832B107D9F720E2A8E2B0E201C01D92DA
S1130230A234B207E1F70E9422030C94A8040C94A0
S113024000000F93CF93DF931F92CDB7DEB72FB784
S11302502983F8941BBEFC0108ED04BF60838981E7
S11302608FBF0F90DF91CF910F910895611102C05C
S113027090E001C090E2842B892B80935200089572
S11302806F71862B809355000895E0E5F0E090812E
S1130290282F2095922390839081892308950F938A
S11302A01F93CF93C82F00E410E0F8016081687FAA
S11302B0682B80E490E00E942101F80180818C2366
S11302C0CF911F910F910895E0E0F8E080E699E066
S11302D086A397A31682178210A211A281E08083BD
S11302E080EC809380010895E0E2F3E088E082836B
S11302F0118285E0808308958CE080930206E0E01B
S1130300F2E085E181A382E080A380E1828381839E
S113031086E0838383E0848391E09083A0EAB0E065
S113032012968C911297816012968C9392A30895E1
S11303301F920F920FB60F9211240BB60F924F9289
S11303405F926F927F928F929F92AF92BF92CF9261
S1130350DF92EF92FF922F933F934F935F936F93AC
S11303607F938F939F93AF93BF93CF93DF93EF9339
S1130370FF936091282070912920072E000C880B90
S1130380990B0E947D0320E030E04AE754E40E9488
S1130390E10320E030E044E050E40E94E10320E087
S11303A030E040E05AE30E94E1030E944C032B0139
S11303B03C01C0913820D0913920E0913E20F09149
S11303C03F2020911C2030911D2040911E205091EF
S11303D01F20DB010E9486046B017C012091182000
S11303E03091192040911A2050911B20DE010E9467
S11303F09104C60ED71EE81EF91EA0912A20B091C2
S11304002B202091142030911520409116205091DA
S113041017200E949104C60ED71EE81EF91E2091D3
S11304202420309125204091262050912720DF015F
S11304300E949104C61AD70AE80AF90AA091362044
S1130440B09137202091202030912120409122200A
S1130450509123200E949104C61AD70AE80AF90A87
S11304608091322090913320A0913420B091352096
S11304708C0D9D1DAE1DBF1D4C015D01072E7EE040
S1130480B594A794979487947A95D1F7702DC093D7
S11304902A20D0932B204092382050923920E09388
S11304A03620F093372080923E2090923F20C091D6
S11304B02E20D0912F20E0914020F0914120609196
S11304C008207091092080910A2090910B20A501A9
S11304D094010E947604C0903A20D0903B20E09092
S11304E03C20F0903D20C60ED71EE81EF91E209138
S11304F00420309105204091062050910720DE0110
S11305000E949104C60ED71EE81EF91EA091302049
S1130510B09131202091002030910120409102209F
S1130520509103200E949104C60ED71EE81EF91EA6
S113053020911020309111204091122050911320CD
S1130540DF010E949104C61AD70AE80AF90AA091A9
S11305502C20B0912D2020910C2030910D20409121
S11305600E2050910F200E949104C61AD70AE80A5F
S1130570F90AC0933020D093312080922E2090929B
S11305802F20E0932C20F0932D20C701B601052ED7
S11305905EE095958795779567955A95D1F7502D97
S11305A060934020709341200E947D0327E13DE148
S11305B04BE954E40E94E1032FE632E143E85AE3B5
S11305C00E94E1030E944C03609338037093390343
S11305D0D501C4019F73AA27BB278093322090932F
S11305E03320A0933420B09335208FE3D822EE2417
S11305F0FF24C0923A20D0923B20E0923C20F0921B
S11306003D20FF91EF91DF91CF91BF91AF919F91E9
S11306108F917F916F915F914F913F912F91FF90B7
S1130620EF90DF90CF90BF90AF909F908F907F908E
S11306306F905F904F900F900BBE0F900FBE0F9076
S11306401F9018954BE060E080EC0E943601E0E5D5
S1130650F0E0808188608083818183FFFDCF63E047
S113066080EC0E944001E0E5F0E0808180618083BD
S1130670818184FFFDCF84E00E944F0181E00E94CC
S1130680450182E00E9445010E9464010E947401B8
S11306900E947C017894FFCF0E94C00388F09F578A
S11306A098F0B92F9927B751B0F0E1F0660F771F92
S11306B0881F991F1AF0BA95C9F714C0B13091F088
S11306C00E94DA03B1E008950C94DA03672F782FBF
S11306D08827B85F39F0B93FCCF38695779567954D
S11306E0B395D9F73EF490958095709561957F4FB9
S11306F08F4F9F4F0895E89409C097FB3EF490955F
S11307008095709561957F4F8F4F9F4F9923A9F0E6
S1130710F92F96E9BB279395F69587957795679575
S1130720B795F111F8CFFAF4BB0F11F460FF1BC0B9
S11307306F5F7F4F8F4F9F4F16C0882311F096E94C
S113074011C0772321F09EE8872F762F05C06623FA
S113075071F096E8862F70E060E02AF09A95660FB3
S1130760771F881FDAF7880F9695879597F908956C
S113077057FD9058440F551F59F05F3F71F047954E
S1130780880F97FB991F61F09F3F79F08795089533
S1130790121613061406551FF2CF4695F1DF08C052
S11307A0161617061806991FF1CF8695710561056F
S11307B008940895E894BB2766277727CB0197F917
S11307C008950E94F4030C9465040E94570438F0C1
S11307D00E945E0420F0952311F00C944E040C94B6
S11307E0540411240C94DB030E94B80370F3959F06
S11307F0C1F3950F50E0551F629FF001729FBB2714
S1130800F00DB11D639FAA27F00DB11DAA1F649FAF
S11308106627B00DA11D661F829F2227B00DA11D62
S1130820621F739FB00DA11D621F839FA00D611DE8
S1130830221F749F3327A00D611D231F849F600D09
S1130840211D822F762F6A2F11249F5750409AF032
S1130850F1F088234AF0EE0FFF1FBB1F661F771FBE
S1130860881F91505040A9F79E3F510580F00C9489
S11308704E040C94DB035F3FE4F3983ED4F3869577
S113088077956795B795F795E7959F5FC1F7FE2B29
S1130890880F911D9695879597F9089597F99F6705
S11308A080E870E060E008959FEF80EC08950024F4
S11308B00A941616170618060906089500240A94C1
S11308C012161306140605060895092E0394000C47
S11308D011F4882352F0BB0F40F4BF2B11F460FFD6
S11308E004C06F5F7F4F8F4F9F4F0895DB018F933D
S11308F09F930E948604BF91AF91A29F800D911D8A
S1130900A39F900DB29F900D112408950E94990405
S1130910A59F900DB49F900DA49F800D911D11244F
S11309200895B7FF0C9486040E948604821B930BDF
S11309300895A29FB001B39FC001A39F700D811DB4
S11309401124911DB29F700D811D1124911D0895D4
S1070950F894FFCF45
S11309545F000000BE0000005F000000C538000016
S1130964B888FFFF58000000B000000058000000E1
S10B0974D62F00008B91FFFF58
S9030000FC
